{
  "_format": "hh-sol-artifact-1",
  "contractName": "MemeToken",
  "sourceName": "contracts/src/MemeToken.sol",
  "abi": [
    {
      "inputs": [],
      "stateMutability": "nonpayable",
      "type": "constructor"
    },
    {
      "anonymous": false,
      "inputs": [
        {
          "indexed": true,
          "internalType": "address",
          "name": "owner",
          "type": "address"
        },
        {
          "indexed": true,
          "internalType": "address",
          "name": "spender",
          "type": "address"
        },
        {
          "indexed": false,
          "internalType": "uint256",
          "name": "value",
          "type": "uint256"
        }
      ],
      "name": "Approval",
      "type": "event"
    },
    {
      "anonymous": false,
      "inputs": [
        {
          "indexed": true,
          "internalType": "address",
          "name": "from",
          "type": "address"
        },
        {
          "indexed": false,
          "internalType": "uint256",
          "name": "amount",
          "type": "uint256"
        }
      ],
      "name": "ReceivedFee",
      "type": "event"
    },
    {
      "anonymous": false,
      "inputs": [
        {
          "indexed": true,
          "internalType": "address",
          "name": "from",
          "type": "address"
        },
        {
          "indexed": true,
          "internalType": "address",
          "name": "to",
          "type": "address"
        },
        {
          "indexed": false,
          "internalType": "uint256",
          "name": "value",
          "type": "uint256"
        }
      ],
      "name": "Transfer",
      "type": "event"
    },
    {
      "inputs": [
        {
          "internalType": "address",
          "name": "owner",
          "type": "address"
        },
        {
          "internalType": "address",
          "name": "spender",
          "type": "address"
        }
      ],
      "name": "allowance",
      "outputs": [
        {
          "internalType": "uint256",
          "name": "",
          "type": "uint256"
        }
      ],
      "stateMutability": "view",
      "type": "function"
    },
    {
      "inputs": [
        {
          "internalType": "address",
          "name": "spender",
          "type": "address"
        },
        {
          "internalType": "uint256",
          "name": "amount",
          "type": "uint256"
        }
      ],
      "name": "approve",
      "outputs": [
        {
          "internalType": "bool",
          "name": "",
          "type": "bool"
        }
      ],
      "stateMutability": "nonpayable",
      "type": "function"
    },
    {
      "inputs": [
        {
          "internalType": "address",
          "name": "account",
          "type": "address"
        }
      ],
      "name": "balanceOf",
      "outputs": [
        {
          "internalType": "uint256",
          "name": "",
          "type": "uint256"
        }
      ],
      "stateMutability": "view",
      "type": "function"
    },
    {
      "inputs": [],
      "name": "decimals",
      "outputs": [
        {
          "internalType": "uint8",
          "name": "",
          "type": "uint8"
        }
      ],
      "stateMutability": "view",
      "type": "function"
    },
    {
      "inputs": [
        {
          "internalType": "address",
          "name": "spender",
          "type": "address"
        },
        {
          "internalType": "uint256",
          "name": "subtractedValue",
          "type": "uint256"
        }
      ],
      "name": "decreaseAllowance",
      "outputs": [
        {
          "internalType": "bool",
          "name": "",
          "type": "bool"
        }
      ],
      "stateMutability": "nonpayable",
      "type": "function"
    },
    {
      "inputs": [
        {
          "internalType": "address",
          "name": "spender",
          "type": "address"
        },
        {
          "internalType": "uint256",
          "name": "addedValue",
          "type": "uint256"
        }
      ],
      "name": "increaseAllowance",
      "outputs": [
        {
          "internalType": "bool",
          "name": "",
          "type": "bool"
        }
      ],
      "stateMutability": "nonpayable",
      "type": "function"
    },
    {
      "inputs": [
        {
          "internalType": "address",
          "name": "_owner",
          "type": "address"
        },
        {
          "internalType": "string",
          "name": "_symbol",
          "type": "string"
        },
        {
          "internalType": "uint256",
          "name": "_totalSupply",
          "type": "uint256"
        },
        {
          "internalType": "uint256",
          "name": "_perMint",
          "type": "uint256"
        },
        {
          "internalType": "uint256",
          "name": "_price",
          "type": "uint256"
        }
      ],
      "name": "initialize",
      "outputs": [],
      "stateMutability": "nonpayable",
      "type": "function"
    },
    {
      "inputs": [
        {
          "internalType": "address",
          "name": "_sender",
          "type": "address"
        }
      ],
      "name": "mint",
      "outputs": [],
      "stateMutability": "payable",
      "type": "function"
    },
    {
      "inputs": [],
      "name": "minted",
      "outputs": [
        {
          "internalType": "uint256",
          "name": "",
          "type": "uint256"
        }
      ],
      "stateMutability": "view",
      "type": "function"
    },
    {
      "inputs": [],
      "name": "name",
      "outputs": [
        {
          "internalType": "string",
          "name": "",
          "type": "string"
        }
      ],
      "stateMutability": "view",
      "type": "function"
    },
    {
      "inputs": [],
      "name": "owner",
      "outputs": [
        {
          "internalType": "address",
          "name": "",
          "type": "address"
        }
      ],
      "stateMutability": "view",
      "type": "function"
    },
    {
      "inputs": [],
      "name": "perMint",
      "outputs": [
        {
          "internalType": "uint256",
          "name": "",
          "type": "uint256"
        }
      ],
      "stateMutability": "view",
      "type": "function"
    },
    {
      "inputs": [],
      "name": "price",
      "outputs": [
        {
          "internalType": "uint256",
          "name": "",
          "type": "uint256"
        }
      ],
      "stateMutability": "view",
      "type": "function"
    },
    {
      "inputs": [],
      "name": "symbol",
      "outputs": [
        {
          "internalType": "string",
          "name": "",
          "type": "string"
        }
      ],
      "stateMutability": "view",
      "type": "function"
    },
    {
      "inputs": [],
      "name": "totalSupply",
      "outputs": [
        {
          "internalType": "uint256",
          "name": "",
          "type": "uint256"
        }
      ],
      "stateMutability": "view",
      "type": "function"
    },
    {
      "inputs": [],
      "name": "totalSupply_",
      "outputs": [
        {
          "internalType": "uint256",
          "name": "",
          "type": "uint256"
        }
      ],
      "stateMutability": "view",
      "type": "function"
    },
    {
      "inputs": [
        {
          "internalType": "address",
          "name": "recipient",
          "type": "address"
        },
        {
          "internalType": "uint256",
          "name": "amount",
          "type": "uint256"
        }
      ],
      "name": "transfer",
      "outputs": [
        {
          "internalType": "bool",
          "name": "",
          "type": "bool"
        }
      ],
      "stateMutability": "nonpayable",
      "type": "function"
    },
    {
      "inputs": [
        {
          "internalType": "address",
          "name": "sender",
          "type": "address"
        },
        {
          "internalType": "address",
          "name": "recipient",
          "type": "address"
        },
        {
          "internalType": "uint256",
          "name": "amount",
          "type": "uint256"
        }
      ],
      "name": "transferFrom",
      "outputs": [
        {
          "internalType": "bool",
          "name": "",
          "type": "bool"
        }
      ],
      "stateMutability": "nonpayable",
      "type": "function"
    },
    {
      "inputs": [],
      "name": "withdrawFees",
      "outputs": [],
      "stateMutability": "nonpayable",
      "type": "function"
    },
    {
      "stateMutability": "payable",
      "type": "receive"
    }
  ],
  "bytecode": "0x608060405234801561001057600080fd5b506040805160208082018084526000808452845192830190945292815281519192909161003f91600391610068565b508051610053906004906020840190610068565b50506005805460ff1916601217905550610103565b828054600181600116156101000203166002900490600052602060002090601f016020900481019282601f106100a957805160ff19168380011785556100d6565b828001600101855582156100d6579182015b828111156100d65782518255916020019190600101906100bb565b506100e29291506100e6565b5090565b61010091905b808211156100e257600081556001016100ec565b90565b61100280620001136000396000f3fe6080604052600436106101185760003560e01c80634f02c420116100a057806398c74dfc1161006457806398c74dfc146103f4578063a035b1fe1461048d578063a457c2d7146104a2578063a9059cbb146104db578063dd62ed3e1461051457610155565b80634f02c420146103405780636a6278421461035557806370a082311461037b5780638da5cb5b146103ae57806395d89b41146103df57610155565b806323b872dd116100e757806323b872dd1461026d578063313ce567146102b0578063324536eb146102db57806339509351146102f0578063476343ee1461032957610155565b806306fdde031461015a578063095ea7b3146101e45780630ed62b021461023157806318160ddd1461025857610155565b366101555760408051348152905133917f86e293e1baa7071cb4ab3f657a446c92a1391aad0eb4202969b585d009a59b28919081900360200190a2005b600080fd5b34801561016657600080fd5b5061016f61054f565b6040805160208082528351818301528351919283929083019185019080838360005b838110156101a9578181015183820152602001610191565b50505050905090810190601f1680156101d65780820380516001836020036101000a031916815260200191505b509250505060405180910390f35b3480156101f057600080fd5b5061021d6004803603604081101561020757600080fd5b506001600160a01b0381351690602001356105e6565b604080519115158252519081900360200190f35b34801561023d57600080fd5b50610246610603565b60408051918252519081900360200190f35b34801561026457600080fd5b50610246610609565b34801561027957600080fd5b5061021d6004803603606081101561029057600080fd5b506001600160a01b0381358116916020810135909116906040013561060f565b3480156102bc57600080fd5b506102c561069c565b6040805160ff9092168252519081900360200190f35b3480156102e757600080fd5b506102466106a5565b3480156102fc57600080fd5b5061021d6004803603604081101561031357600080fd5b506001600160a01b0381351690602001356106ab565b34801561033557600080fd5b5061033e6106ff565b005b34801561034c57600080fd5b50610246610793565b61033e6004803603602081101561036b57600080fd5b50356001600160a01b0316610799565b34801561038757600080fd5b506102466004803603602081101561039e57600080fd5b50356001600160a01b0316610803565b3480156103ba57600080fd5b506103c361081e565b604080516001600160a01b039092168252519081900360200190f35b3480156103eb57600080fd5b5061016f610832565b34801561040057600080fd5b5061033e600480360360a081101561041757600080fd5b6001600160a01b03823516919081019060408101602082013564010000000081111561044257600080fd5b82018360208201111561045457600080fd5b8035906020019184600183028401116401000000008311171561047657600080fd5b919350915080359060208101359060400135610893565b34801561049957600080fd5b50610246610930565b3480156104ae57600080fd5b5061021d600480360360408110156104c557600080fd5b506001600160a01b038135169060200135610936565b3480156104e757600080fd5b5061021d600480360360408110156104fe57600080fd5b506001600160a01b0381351690602001356109a4565b34801561052057600080fd5b506102466004803603604081101561053757600080fd5b506001600160a01b03813581169160200135166109b8565b60038054604080516020601f60026000196101006001881615020190951694909404938401819004810282018101909252828152606093909290918301828280156105db5780601f106105b0576101008083540402835291602001916105db565b820191906000526020600020905b8154815290600101906020018083116105be57829003601f168201915b505050505090505b90565b60006105fa6105f36109e3565b84846109e7565b50600192915050565b60075481565b60025490565b600061061c848484610ad3565b610692846106286109e3565b61068d85604051806060016040528060288152602001610f37602891396001600160a01b038a166000908152600160205260408120906106666109e3565b6001600160a01b03168152602081019190915260400160002054919063ffffffff610c3a16565b6109e7565b5060019392505050565b60055460ff1690565b60065481565b60006105fa6106b86109e3565b8461068d85600160006106c96109e3565b6001600160a01b03908116825260208083019390935260409182016000908120918c16815292529020549063ffffffff610cd116565b60055461010090046001600160a01b03163314610750576040805162461bcd60e51b815260206004820152600a60248201526927b7363c9037bbb732b960b11b604482015290519081900360640190fd5b6005546040516001600160a01b0361010090920491909116904780156108fc02916000818181858888f19350505050158015610790573d6000803e3d6000fd5b50565b60095481565b6006546007546009540111156107ed576040805162461bcd60e51b81526020600482015260146024820152734578636565647320746f74616c20737570706c7960601b604482015290519081900360640190fd5b6007546009805482019055610790908290610d32565b6001600160a01b031660009081526020819052604090205490565b60055461010090046001600160a01b031681565b600a8054604080516020601f60026000196101006001881615020190951694909404938401819004810282018101909252828152606093909290918301828280156105db5780601f106105b0576101008083540402835291602001916105db565b60055461010090046001600160a01b0316156108ec576040805162461bcd60e51b8152602060048201526013602482015272105b1c9958591e481a5b9a5d1a585b1a5e9959606a1b604482015290519081900360640190fd5b60058054610100600160a81b0319166101006001600160a01b03891602179055600683905560078290556008819055610927600a8686610e33565b50505050505050565b60085481565b60006105fa6109436109e3565b8461068d85604051806060016040528060258152602001610fa8602591396001600061096d6109e3565b6001600160a01b03908116825260208083019390935260409182016000908120918d1681529252902054919063ffffffff610c3a16565b60006105fa6109b16109e3565b8484610ad3565b6001600160a01b03918216600090815260016020908152604080832093909416825291909152205490565b3390565b6001600160a01b038316610a2c5760405162461bcd60e51b8152600401808060200182810382526024815260200180610f846024913960400191505060405180910390fd5b6001600160a01b038216610a715760405162461bcd60e51b8152600401808060200182810382526022815260200180610eef6022913960400191505060405180910390fd5b6001600160a01b03808416600081815260016020908152604080832094871680845294825291829020859055815185815291517f8c5be1e5ebec7d5bd14f71427d1e84f3dd0314c0f7b2291e5b200ac8c7c3b9259281900390910190a3505050565b6001600160a01b038316610b185760405162461bcd60e51b8152600401808060200182810382526025815260200180610f5f6025913960400191505060405180910390fd5b6001600160a01b038216610b5d5760405162461bcd60e51b8152600401808060200182810382526023815260200180610ecc6023913960400191505060405180910390fd5b610b68838383610e2e565b610bab81604051806060016040528060268152602001610f11602691396001600160a01b038616600090815260208190526040902054919063ffffffff610c3a16565b6001600160a01b038085166000908152602081905260408082209390935590841681522054610be0908263ffffffff610cd116565b6001600160a01b038084166000818152602081815260409182902094909455805185815290519193928716927fddf252ad1be2c89b69c2b068fc378daa952ba7f163c4a11628f55a4df523b3ef92918290030190a3505050565b60008184841115610cc95760405162461bcd60e51b81526004018080602001828103825283818151815260200191508051906020019080838360005b83811015610c8e578181015183820152602001610c76565b50505050905090810190601f168015610cbb5780820380516001836020036101000a031916815260200191505b509250505060405180910390fd5b505050900390565b600082820183811015610d2b576040805162461bcd60e51b815260206004820152601b60248201527f536166654d6174683a206164646974696f6e206f766572666c6f770000000000604482015290519081900360640190fd5b9392505050565b6001600160a01b038216610d8d576040805162461bcd60e51b815260206004820152601f60248201527f45524332303a206d696e7420746f20746865207a65726f206164647265737300604482015290519081900360640190fd5b610d9960008383610e2e565b600254610dac908263ffffffff610cd116565b6002556001600160a01b038216600090815260208190526040902054610dd8908263ffffffff610cd116565b6001600160a01b0383166000818152602081815260408083209490945583518581529351929391927fddf252ad1be2c89b69c2b068fc378daa952ba7f163c4a11628f55a4df523b3ef9281900390910190a35050565b505050565b828054600181600116156101000203166002900490600052602060002090601f016020900481019282601f10610e745782800160ff19823516178555610ea1565b82800160010185558215610ea1579182015b82811115610ea1578235825591602001919060010190610e86565b50610ead929150610eb1565b5090565b6105e391905b80821115610ead5760008155600101610eb756fe45524332303a207472616e7366657220746f20746865207a65726f206164647265737345524332303a20617070726f766520746f20746865207a65726f206164647265737345524332303a207472616e7366657220616d6f756e7420657863656564732062616c616e636545524332303a207472616e7366657220616d6f756e74206578636565647320616c6c6f77616e636545524332303a207472616e736665722066726f6d20746865207a65726f206164647265737345524332303a20617070726f76652066726f6d20746865207a65726f206164647265737345524332303a2064656372656173656420616c6c6f77616e63652062656c6f77207a65726fa2646970667358221220d2e7d24ca185d2e9f740fb28bf482692495c94b99dcf03d15b9d9ed05632f03064736f6c63430006060033",
  "linkReferences": {},
  "deployedLinkReferences": {}
}